{
  "contractName": "AgreementUtil",
  "abi": [
    {
      "inputs": [
        {
          "internalType": "uint256[2]",
          "name": "_tempDate",
          "type": "uint256[2]"
        },
        {
          "internalType": "address[2]",
          "name": "_signatures",
          "type": "address[2]"
        }
      ],
      "name": "modifyDates",
      "outputs": [
        {
          "internalType": "bool",
          "name": "success",
          "type": "bool"
        }
      ],
      "stateMutability": "nonpayable",
      "type": "function"
    }
  ],
  "bytecode": "0x608060405234801561001057600080fd5b506109a6806100206000396000f3fe608060405234801561001057600080fd5b506004361061002b5760003560e01c8063f3e24fcd14610030575b600080fd5b61004a600480360381019061004591906107e2565b610060565b604051610057919061083d565b60405180910390f35b60008160006002811061007657610075610858565b5b602002015173ffffffffffffffffffffffffffffffffffffffff163373ffffffffffffffffffffffffffffffffffffffff1614156100e9576040517f08c379a00000000000000000000000000000000000000000000000000000000081526004016100e0906108e4565b60405180910390fd5b60001515600160003373ffffffffffffffffffffffffffffffffffffffff1673ffffffffffffffffffffffffffffffffffffffff16815260200190815260200160002060009054906101000a900460ff1615151461017c576040517f08c379a000000000000000000000000000000000000000000000000000000000815260040161017390610950565b60405180910390fd5b60018060003373ffffffffffffffffffffffffffffffffffffffff1673ffffffffffffffffffffffffffffffffffffffff16815260200190815260200160002060006101000a81548160ff0219169083151502179055506000806000815481106101e9576101e8610858565b5b906000526020600020015414801561021f575060008060018154811061021257610211610858565b5b9060005260206000200154145b156102ab5760008360006002811061023a57610239610858565b5b6020020151908060018154018082558091505060019003906000526020600020016000909190919091505560008360016002811061027b5761027a610858565b5b60200201519080600181540180825580915050600190039060005260206000200160009091909190915055610540565b60016000836000600281106102c3576102c2610858565b5b602002015173ffffffffffffffffffffffffffffffffffffffff1673ffffffffffffffffffffffffffffffffffffffff16815260200190815260200160002060009054906101000a900460ff16801561037d5750600160008360016002811061032f5761032e610858565b5b602002015173ffffffffffffffffffffffffffffffffffffffff1673ffffffffffffffffffffffffffffffffffffffff16815260200190815260200160002060009054906101000a900460ff165b61038657600080fd5b8260006002811061039a57610399610858565b5b6020020151600080815481106103b3576103b2610858565b5b90600052602060002001541480156104015750826001600281106103da576103d9610858565b5b602002015160006001815481106103f4576103f3610858565b5b9060005260206000200154145b1561040f5760019050610541565b6000600160008460006002811061042957610428610858565b5b602002015173ffffffffffffffffffffffffffffffffffffffff1673ffffffffffffffffffffffffffffffffffffffff16815260200190815260200160002060006101000a81548160ff0219169083151502179055506000600160008460016002811061049957610498610858565b5b602002015173ffffffffffffffffffffffffffffffffffffffff1673ffffffffffffffffffffffffffffffffffffffff16815260200190815260200160002060006101000a81548160ff02191690831515021790555060008060008154811061050557610504610858565b5b906000526020600020018190555060008060018154811061052957610528610858565b5b906000526020600020018190555060009050610541565b5b92915050565b6000604051905090565b600080fd5b600080fd5b6000601f19601f8301169050919050565b7f4e487b7100000000000000000000000000000000000000000000000000000000600052604160045260246000fd5b6105a48261055b565b810181811067ffffffffffffffff821117156105c3576105c261056c565b5b80604052505050565b60006105d6610547565b90506105e2828261059b565b919050565b600067ffffffffffffffff8211156106025761060161056c565b5b602082029050919050565b600080fd5b6000819050919050565b61062581610612565b811461063057600080fd5b50565b6000813590506106428161061c565b92915050565b600061065b610656846105e7565b6105cc565b905080602084028301858111156106755761067461060d565b5b835b8181101561069e578061068a8882610633565b845260208401935050602081019050610677565b5050509392505050565b600082601f8301126106bd576106bc610556565b5b60026106ca848285610648565b91505092915050565b600067ffffffffffffffff8211156106ee576106ed61056c565b5b602082029050919050565b600073ffffffffffffffffffffffffffffffffffffffff82169050919050565b6000610724826106f9565b9050919050565b61073481610719565b811461073f57600080fd5b50565b6000813590506107518161072b565b92915050565b600061076a610765846106d3565b6105cc565b905080602084028301858111156107845761078361060d565b5b835b818110156107ad57806107998882610742565b845260208401935050602081019050610786565b5050509392505050565b600082601f8301126107cc576107cb610556565b5b60026107d9848285610757565b91505092915050565b600080608083850312156107f9576107f8610551565b5b6000610807858286016106a8565b9250506040610818858286016107b7565b9150509250929050565b60008115159050919050565b61083781610822565b82525050565b6000602082019050610852600083018461082e565b92915050565b7f4e487b7100000000000000000000000000000000000000000000000000000000600052603260045260246000fd5b600082825260208201905092915050565b7f74657374696e6700000000000000000000000000000000000000000000000000600082015250565b60006108ce600783610887565b91506108d982610898565b602082019050919050565b600060208201905081810360008301526108fd816108c1565b9050919050565b7f416464726573732068617320616c7265616479207369676e6564000000000000600082015250565b600061093a601a83610887565b915061094582610904565b602082019050919050565b600060208201905081810360008301526109698161092d565b905091905056fea26469706673582212202360343c85d33a5266046c6cfb93dc47287a0f9f1bf3ae0655c08b0b3e31db7c64736f6c63430008090033",
  "immutableReferences": {},
  "source": "// SPDX-License-Identifier: MIT\r\npragma solidity >=0.4.21 <8.10.0;\r\n\r\n// have they both signed and does the data match\r\n\r\n//TODO refactor  modify date out so that the multi sig function is refactored out\r\ncontract AgreementUtil {\r\n    uint256[] modifyTempArr;\r\n\r\n    mapping(address => bool) modifyContractDate;\r\n\r\n    /*\r\nInput : the proposed dates from one of the parties and the list of sigs required\r\nConditions: If the sender is the first party to sign then mark the temps as their proposal, otherwise\r\ncompare the proposal dates with the temps to see if they match. Resets temps if not a match\r\nReturns: true if the proposal and the temps match\r\n*/\r\n    function modifyDates(\r\n        uint256[2] memory _tempDate,\r\n        address[2] memory _signatures\r\n    ) public returns (bool success) {\r\n        require(msg.sender != _signatures[0], \"testing\");\r\n        require(\r\n            modifyContractDate[msg.sender] == false,\r\n            \"Address has already signed\"\r\n        );\r\n        modifyContractDate[msg.sender] = true;\r\n        if (modifyTempArr[0] == 0 && modifyTempArr[1] == 0) {\r\n            modifyTempArr.push(_tempDate[0]);\r\n            modifyTempArr.push(_tempDate[1]);\r\n        } else {\r\n            require(\r\n                modifyContractDate[_signatures[0]] &&\r\n                    modifyContractDate[_signatures[1]]\r\n            );\r\n            if (\r\n                modifyTempArr[0] == _tempDate[0] &&\r\n                modifyTempArr[1] == _tempDate[1]\r\n            ) {\r\n                return success = true;\r\n            } else {\r\n                modifyContractDate[_signatures[0]] = false;\r\n                modifyContractDate[_signatures[1]] = false;\r\n                modifyTempArr[0] = 0;\r\n                modifyTempArr[1] = 0;\r\n                return success = false;\r\n            }\r\n        }\r\n    }\r\n}\r\n",
  "sourcePath": "C:/Users/richi/Solidity/ProjectDAO/contracts/AgreementUtil.sol",
  "compiler": {
    "name": "solc",
    "version": "0.8.9+commit.e5eed63a.Emscripten.clang"
  },
  "schemaVersion": "3.3.1",
  "updatedAt": "2022-06-14T21:56:19.032Z",
  "devdoc": {
    "kind": "dev",
    "methods": {},
    "version": 1
  },
  "userdoc": {
    "kind": "user",
    "methods": {},
    "version": 1
  }
}