{
  "contractName": "ModifyDate",
  "abi": [
    {
      "inputs": [
        {
          "internalType": "uint256[2]",
          "name": "_tempDate",
          "type": "uint256[2]"
        },
        {
          "internalType": "address[2]",
          "name": "_signatures",
          "type": "address[2]"
        }
      ],
      "name": "modifyDates",
      "outputs": [
        {
          "internalType": "bool",
          "name": "success",
          "type": "bool"
        }
      ],
      "stateMutability": "nonpayable",
      "type": "function"
    }
  ],
  "bytecode": "0x608060405234801561001057600080fd5b506107ef806100206000396000f3fe608060405234801561001057600080fd5b506004361061002b5760003560e01c8063f3e24fcd14610030575b600080fd5b61004a60048036038101906100459190610714565b610060565b604051610057919061076f565b60405180910390f35b6000600160003373ffffffffffffffffffffffffffffffffffffffff1673ffffffffffffffffffffffffffffffffffffffff16815260200190815260200160002060009054906101000a900460ff16156100b957600080fd5b60018060003373ffffffffffffffffffffffffffffffffffffffff1673ffffffffffffffffffffffffffffffffffffffff16815260200190815260200160002060006101000a81548160ff0219169083151502179055506000806000815481106101265761012561078a565b5b906000526020600020015414801561015c575060008060018154811061014f5761014e61078a565b5b9060005260206000200154145b156101dd57826000600281106101755761017461078a565b5b60200201516000808154811061018e5761018d61078a565b5b9060005260206000200181905550826001600281106101b0576101af61078a565b5b602002015160006001815481106101ca576101c961078a565b5b9060005260206000200181905550610472565b60016000836000600281106101f5576101f461078a565b5b602002015173ffffffffffffffffffffffffffffffffffffffff1673ffffffffffffffffffffffffffffffffffffffff16815260200190815260200160002060009054906101000a900460ff1680156102af575060016000836001600281106102615761026061078a565b5b602002015173ffffffffffffffffffffffffffffffffffffffff1673ffffffffffffffffffffffffffffffffffffffff16815260200190815260200160002060009054906101000a900460ff165b6102b857600080fd5b826000600281106102cc576102cb61078a565b5b6020020151600080815481106102e5576102e461078a565b5b906000526020600020015414801561033357508260016002811061030c5761030b61078a565b5b602002015160006001815481106103265761032561078a565b5b9060005260206000200154145b156103415760019050610473565b6000600160008460006002811061035b5761035a61078a565b5b602002015173ffffffffffffffffffffffffffffffffffffffff1673ffffffffffffffffffffffffffffffffffffffff16815260200190815260200160002060006101000a81548160ff021916908315150217905550600060016000846001600281106103cb576103ca61078a565b5b602002015173ffffffffffffffffffffffffffffffffffffffff1673ffffffffffffffffffffffffffffffffffffffff16815260200190815260200160002060006101000a81548160ff0219169083151502179055506000806000815481106104375761043661078a565b5b906000526020600020018190555060008060018154811061045b5761045a61078a565b5b906000526020600020018190555060009050610473565b5b92915050565b6000604051905090565b600080fd5b600080fd5b6000601f19601f8301169050919050565b7f4e487b7100000000000000000000000000000000000000000000000000000000600052604160045260246000fd5b6104d68261048d565b810181811067ffffffffffffffff821117156104f5576104f461049e565b5b80604052505050565b6000610508610479565b905061051482826104cd565b919050565b600067ffffffffffffffff8211156105345761053361049e565b5b602082029050919050565b600080fd5b6000819050919050565b61055781610544565b811461056257600080fd5b50565b6000813590506105748161054e565b92915050565b600061058d61058884610519565b6104fe565b905080602084028301858111156105a7576105a661053f565b5b835b818110156105d057806105bc8882610565565b8452602084019350506020810190506105a9565b5050509392505050565b600082601f8301126105ef576105ee610488565b5b60026105fc84828561057a565b91505092915050565b600067ffffffffffffffff8211156106205761061f61049e565b5b602082029050919050565b600073ffffffffffffffffffffffffffffffffffffffff82169050919050565b60006106568261062b565b9050919050565b6106668161064b565b811461067157600080fd5b50565b6000813590506106838161065d565b92915050565b600061069c61069784610605565b6104fe565b905080602084028301858111156106b6576106b561053f565b5b835b818110156106df57806106cb8882610674565b8452602084019350506020810190506106b8565b5050509392505050565b600082601f8301126106fe576106fd610488565b5b600261070b848285610689565b91505092915050565b6000806080838503121561072b5761072a610483565b5b6000610739858286016105da565b925050604061074a858286016106e9565b9150509250929050565b60008115159050919050565b61076981610754565b82525050565b60006020820190506107846000830184610760565b92915050565b7f4e487b7100000000000000000000000000000000000000000000000000000000600052603260045260246000fdfea2646970667358221220899aef9117de23edba328b92c26a1d994b7d1c45ccfca3400f29acfd9604920f64736f6c63430008090033",
  "immutableReferences": {},
  "source": "// SPDX-License-Identifier: MIT\r\npragma solidity >=0.4.21 <8.10.0;\r\n\r\n// have they both signed and does the data match\r\n\r\n//TODO refactor  modify date out so that the multi sig function is refactored out\r\ncontract ModifyDate {\r\n    uint256[] modifyTempArr;\r\n\r\n    mapping(address => bool) modifyContractDate;\r\n\r\n    /*\r\nInput : the proposed dates from one of the parties and the list of sigs required\r\nConditions: If the sender is the first party to sign then mark the temps as their proposal, otherwise\r\ncompare the proposal dates with the temps to see if they match. Resets temps if not a match\r\nReturns: true if the proposal and the temps match\r\n*/\r\n    function modifyDates(\r\n        uint256[2] memory _tempDate,\r\n        address[2] memory _signatures\r\n    ) public returns (bool success) {\r\n        require(!modifyContractDate[msg.sender]);\r\n        modifyContractDate[msg.sender] = true;\r\n        if (modifyTempArr[0] == 0 && modifyTempArr[1] == 0) {\r\n            modifyTempArr[0] = _tempDate[0];\r\n            modifyTempArr[1] = _tempDate[1];\r\n        } else {\r\n            require(\r\n                modifyContractDate[_signatures[0]] &&\r\n                    modifyContractDate[_signatures[1]]\r\n            );\r\n            if (\r\n                modifyTempArr[0] == _tempDate[0] &&\r\n                modifyTempArr[1] == _tempDate[1]\r\n            ) {\r\n                return success = true;\r\n            } else {\r\n                modifyContractDate[_signatures[0]] = false;\r\n                modifyContractDate[_signatures[1]] = false;\r\n                modifyTempArr[0] = 0;\r\n                modifyTempArr[1] = 0;\r\n                return success = false;\r\n            }\r\n        }\r\n    }\r\n}\r\n",
  "sourcePath": "C:\\Users\\richi\\Solidity\\ProjectDAO\\contracts\\ModifyDate.sol",
  "compiler": {
    "name": "solc",
    "version": "0.8.9+commit.e5eed63a.Emscripten.clang"
  },
  "schemaVersion": "3.3.1",
  "updatedAt": "2022-05-19T12:08:01.778Z",
  "devdoc": {
    "kind": "dev",
    "methods": {},
    "version": 1
  },
  "userdoc": {
    "kind": "user",
    "methods": {},
    "version": 1
  }
}