{
  "contractName": "ScheduledPaymentAgreementFactory",
  "abi": [
    {
      "inputs": [
        {
          "internalType": "address",
          "name": "_masterContract",
          "type": "address"
        }
      ],
      "stateMutability": "nonpayable",
      "type": "constructor"
    },
    {
      "inputs": [
        {
          "internalType": "uint256",
          "name": "",
          "type": "uint256"
        }
      ],
      "name": "children",
      "outputs": [
        {
          "internalType": "contract ScheduledPaymentAgreement",
          "name": "",
          "type": "address"
        }
      ],
      "stateMutability": "view",
      "type": "function"
    },
    {
      "inputs": [
        {
          "internalType": "uint256",
          "name": "_paymentAmount",
          "type": "uint256"
        },
        {
          "internalType": "uint256",
          "name": "_stakeAmount",
          "type": "uint256"
        },
        {
          "internalType": "uint256",
          "name": "_startDate",
          "type": "uint256"
        },
        {
          "internalType": "uint256",
          "name": "_endDate",
          "type": "uint256"
        },
        {
          "internalType": "uint256",
          "name": "_interval",
          "type": "uint256"
        }
      ],
      "name": "createChild",
      "outputs": [],
      "stateMutability": "nonpayable",
      "type": "function"
    },
    {
      "inputs": [],
      "name": "getChildren",
      "outputs": [
        {
          "internalType": "contract ScheduledPaymentAgreement[]",
          "name": "",
          "type": "address[]"
        }
      ],
      "stateMutability": "view",
      "type": "function"
    }
  ],
  "bytecode": "0x608060405234801561001057600080fd5b50604051610701380380610701833981810160405281019061003291906100dc565b80600160006101000a81548173ffffffffffffffffffffffffffffffffffffffff021916908373ffffffffffffffffffffffffffffffffffffffff16021790555050610109565b600080fd5b600073ffffffffffffffffffffffffffffffffffffffff82169050919050565b60006100a98261007e565b9050919050565b6100b98161009e565b81146100c457600080fd5b50565b6000815190506100d6816100b0565b92915050565b6000602082840312156100f2576100f1610079565b5b6000610100848285016100c7565b91505092915050565b6105e9806101186000396000f3fe608060405234801561001057600080fd5b50600436106100415760003560e01c80634892e8e8146100465780635aa4fd0c146100645780637002ce4214610080575b600080fd5b61004e6100b0565b60405161005b9190610422565b60405180910390f35b61007e6004803603810190610079919061047f565b61013e565b005b61009a600480360381019061009591906104fa565b61024b565b6040516100a79190610536565b60405180910390f35b6060600080548060200260200160405190810160405280929190818152602001828054801561013457602002820191906000526020600020905b8160009054906101000a900473ffffffffffffffffffffffffffffffffffffffff1673ffffffffffffffffffffffffffffffffffffffff16815260200190600101908083116100ea575b5050505050905090565b600061016b600160009054906101000a900473ffffffffffffffffffffffffffffffffffffffff1661028a565b90508073ffffffffffffffffffffffffffffffffffffffff16639dabc97887878787876040518663ffffffff1660e01b81526004016101ae959493929190610560565b600060405180830381600087803b1580156101c857600080fd5b505af11580156101dc573d6000803e3d6000fd5b505050506000819080600181540180825580915050600190039060005260206000200160009091909190916101000a81548173ffffffffffffffffffffffffffffffffffffffff021916908373ffffffffffffffffffffffffffffffffffffffff160217905550505050505050565b6000818154811061025b57600080fd5b906000526020600020016000915054906101000a900473ffffffffffffffffffffffffffffffffffffffff1681565b6000808260601b90506040517f3d602d80600a3d3981f3363d3d373d3d3d363d7300000000000000000000000081528160148201527f5af43d82803e903d91602b57fd5bf3000000000000000000000000000000000060288201526037816000f092505050919050565b600081519050919050565b600082825260208201905092915050565b6000819050602082019050919050565b600073ffffffffffffffffffffffffffffffffffffffff82169050919050565b6000819050919050565b600061036561036061035b84610320565b610340565b610320565b9050919050565b60006103778261034a565b9050919050565b60006103898261036c565b9050919050565b6103998161037e565b82525050565b60006103ab8383610390565b60208301905092915050565b6000602082019050919050565b60006103cf826102f4565b6103d981856102ff565b93506103e483610310565b8060005b838110156104155781516103fc888261039f565b9750610407836103b7565b9250506001810190506103e8565b5085935050505092915050565b6000602082019050818103600083015261043c81846103c4565b905092915050565b600080fd5b6000819050919050565b61045c81610449565b811461046757600080fd5b50565b60008135905061047981610453565b92915050565b600080600080600060a0868803121561049b5761049a610444565b5b60006104a98882890161046a565b95505060206104ba8882890161046a565b94505060406104cb8882890161046a565b93505060606104dc8882890161046a565b92505060806104ed8882890161046a565b9150509295509295909350565b6000602082840312156105105761050f610444565b5b600061051e8482850161046a565b91505092915050565b6105308161037e565b82525050565b600060208201905061054b6000830184610527565b92915050565b61055a81610449565b82525050565b600060a0820190506105756000830188610551565b6105826020830187610551565b61058f6040830186610551565b61059c6060830185610551565b6105a96080830184610551565b969550505050505056fea26469706673582212207bc57e046373d24439c090b717ed681c5100627605e04c07f73fe2adc4a13cce64736f6c63430008090033",
  "immutableReferences": {},
  "source": "//SPDX-License-Identifier: MIT\r\npragma solidity >=0.4.21 <8.10.0;\r\n\r\nimport \"./CloneFactory.sol\";\r\nimport \"./ScheduledPaymentAgreement.sol\";\r\n\r\ncontract ScheduledPaymentAgreementFactory is CloneFactory {\r\n    ScheduledPaymentAgreement[] public children;\r\n    address masterContract;\r\n\r\n    constructor(address _masterContract) {\r\n        masterContract = _masterContract;\r\n    }\r\n\r\n    function createChild(\r\n        uint256 _paymentAmount,\r\n        uint256 _stakeAmount,\r\n        uint256 _startDate,\r\n        uint256 _endDate,\r\n        uint256 _interval\r\n    ) external {\r\n        ScheduledPaymentAgreement child = ScheduledPaymentAgreement(\r\n            createClone(masterContract)\r\n        );\r\n        child.init(\r\n            _paymentAmount,\r\n            _stakeAmount,\r\n            _startDate,\r\n            _endDate,\r\n            _interval\r\n        );\r\n        children.push(child);\r\n    }\r\n\r\n    function getChildren()\r\n        external\r\n        view\r\n        returns (ScheduledPaymentAgreement[] memory)\r\n    {\r\n        return children;\r\n    }\r\n}\r\n",
  "sourcePath": "C:/Users/richi/Solidity/ProjectDAO/contracts/ScheduledPaymentAgreementFactory.sol",
  "compiler": {
    "name": "solc",
    "version": "0.8.9+commit.e5eed63a.Emscripten.clang"
  },
  "schemaVersion": "3.3.1",
  "updatedAt": "2022-06-14T21:56:19.052Z",
  "devdoc": {
    "kind": "dev",
    "methods": {},
    "version": 1
  },
  "userdoc": {
    "kind": "user",
    "methods": {},
    "version": 1
  }
}