{
  "contractName": "SimpleContractAgreement",
  "abi": [
    {
      "constant": false,
      "inputs": [
        {
          "internalType": "uint256",
          "name": "months",
          "type": "uint256"
        }
      ],
      "name": "setContractMonths",
      "outputs": [],
      "payable": false,
      "stateMutability": "nonpayable",
      "type": "function"
    },
    {
      "constant": true,
      "inputs": [],
      "name": "getContractMonths",
      "outputs": [
        {
          "internalType": "uint256",
          "name": "",
          "type": "uint256"
        }
      ],
      "payable": false,
      "stateMutability": "view",
      "type": "function"
    },
    {
      "constant": false,
      "inputs": [
        {
          "internalType": "int256",
          "name": "amount",
          "type": "int256"
        }
      ],
      "name": "setPaymentAmount",
      "outputs": [],
      "payable": false,
      "stateMutability": "nonpayable",
      "type": "function"
    },
    {
      "constant": true,
      "inputs": [],
      "name": "getPaymentAmount",
      "outputs": [
        {
          "internalType": "int256",
          "name": "",
          "type": "int256"
        }
      ],
      "payable": false,
      "stateMutability": "view",
      "type": "function"
    },
    {
      "constant": false,
      "inputs": [],
      "name": "setEmployer",
      "outputs": [],
      "payable": false,
      "stateMutability": "nonpayable",
      "type": "function"
    },
    {
      "constant": true,
      "inputs": [],
      "name": "getEmployer",
      "outputs": [
        {
          "internalType": "address",
          "name": "",
          "type": "address"
        }
      ],
      "payable": false,
      "stateMutability": "view",
      "type": "function"
    },
    {
      "constant": false,
      "inputs": [],
      "name": "setEmployee",
      "outputs": [],
      "payable": false,
      "stateMutability": "nonpayable",
      "type": "function"
    },
    {
      "constant": true,
      "inputs": [],
      "name": "getEmployee",
      "outputs": [
        {
          "internalType": "address",
          "name": "",
          "type": "address"
        }
      ],
      "payable": false,
      "stateMutability": "view",
      "type": "function"
    }
  ],
  "bytecode": "0x6080604052600160025534801561001557600080fd5b506104b0806100256000396000f3fe608060405234801561001057600080fd5b50600436106100885760003560e01c8063bc814c4a1161005b578063bc814c4a1461016d578063d4f79d9214610177578063e87118d2146101a5578063ee9a5028146101c357610088565b80633e8817aa1461008d5780634132db8f146100ab57806370410380146100f5578063a2b299c114610123575b600080fd5b6100956101cd565b6040518082815260200191505060405180910390f35b6100b36101d7565b604051808273ffffffffffffffffffffffffffffffffffffffff1673ffffffffffffffffffffffffffffffffffffffff16815260200191505060405180910390f35b6101216004803603602081101561010b57600080fd5b8101908080359060200190929190505050610201565b005b61012b610264565b604051808273ffffffffffffffffffffffffffffffffffffffff1673ffffffffffffffffffffffffffffffffffffffff16815260200191505060405180910390f35b61017561028d565b005b6101a36004803603602081101561018d57600080fd5b8101908080359060200190929190505050610347565b005b6101ad6103b6565b6040518082815260200191505060405180910390f35b6101cb6103c0565b005b6000600654905090565b6000600160009054906101000a900473ffffffffffffffffffffffffffffffffffffffff16905090565b6000809054906101000a900473ffffffffffffffffffffffffffffffffffffffff1673ffffffffffffffffffffffffffffffffffffffff163373ffffffffffffffffffffffffffffffffffffffff161461025a57600080fd5b8060038190555050565b60008060009054906101000a900473ffffffffffffffffffffffffffffffffffffffff16905090565b6000809054906101000a900473ffffffffffffffffffffffffffffffffffffffff1673ffffffffffffffffffffffffffffffffffffffff163373ffffffffffffffffffffffffffffffffffffffff1614156102e757600080fd5b6001600554101561034557336000806101000a81548173ffffffffffffffffffffffffffffffffffffffff021916908373ffffffffffffffffffffffffffffffffffffffff1602179055506005600081548092919060010191905055505b565b6000809054906101000a900473ffffffffffffffffffffffffffffffffffffffff1673ffffffffffffffffffffffffffffffffffffffff163373ffffffffffffffffffffffffffffffffffffffff16146103a057600080fd5b600060065414156103b357806006819055505b50565b6000600354905090565b600160009054906101000a900473ffffffffffffffffffffffffffffffffffffffff1673ffffffffffffffffffffffffffffffffffffffff163373ffffffffffffffffffffffffffffffffffffffff16141561041b57600080fd5b6001600454101561047957336000806101000a81548173ffffffffffffffffffffffffffffffffffffffff021916908373ffffffffffffffffffffffffffffffffffffffff1602179055506004600081548092919060010191905055505b56fea265627a7a72315820caa69ebf996fa38cf915a7d3f6e72dfa683f485ac4fbc5f35b0ada98e0e743f164736f6c63430005100032",
  "source": "// SPDX-License-Identifier: MIT\r\npragma solidity >=0.4.21 <8.10.0;\r\n\r\ncontract SimpleContractAgreement {\r\n    address employer;\r\n    address employee;\r\n    uint256 maxEmployees = 1;\r\n    uint256 contractMonths;\r\n    uint256 employerCounter;\r\n    uint256 employeeCounter;\r\n    int256 paymentAmount;\r\n\r\n    function setContractMonths(uint256 months) public onlyEmployer {\r\n        contractMonths = months;\r\n    }\r\n\r\n    function getContractMonths() public view returns (uint256) {\r\n        return contractMonths;\r\n    }\r\n\r\n    function setPaymentAmount(int256 amount) public onlyEmployer {\r\n        if (paymentAmount == 0) {\r\n            paymentAmount = amount;\r\n        }\r\n    }\r\n\r\n    function getPaymentAmount() public view returns (int256) {\r\n        return paymentAmount;\r\n    }\r\n\r\n    function setEmployer() public notEmployee {\r\n        if (employerCounter < 1) {\r\n            employer = msg.sender;\r\n            employerCounter++;\r\n        }\r\n    }\r\n\r\n    function getEmployer() public view returns (address) {\r\n        return employer;\r\n    }\r\n\r\n    function setEmployee() public notEmployer {\r\n        if (employeeCounter < 1) {\r\n            employer = msg.sender;\r\n            employeeCounter++;\r\n        }\r\n    }\r\n\r\n    function getEmployee() public view returns (address) {\r\n        return employee;\r\n    }\r\n\r\n    modifier onlyEmployer() {\r\n        require(msg.sender == employer);\r\n        _;\r\n    }\r\n\r\n    modifier notEmployer() {\r\n        require(msg.sender != employer);\r\n        _;\r\n    }\r\n\r\n    modifier notEmployee() {\r\n        require(msg.sender != employee);\r\n        _;\r\n    }\r\n}\r\n",
  "sourcePath": "C:/Users/richi/Solidity/ProjectDAO/contracts/SimpleContractAgreement.sol",
  "compiler": {
    "name": "solc",
    "version": "0.5.16+commit.9c3226ce.Emscripten.clang"
  },
  "schemaVersion": "3.3.1",
  "updatedAt": "2022-05-09T15:31:32.568Z",
  "networkType": "ethereum",
  "devdoc": {
    "methods": {}
  },
  "userdoc": {
    "methods": {}
  }
}