{
  "contractName": "SimpleContractAgreement",
  "abi": [
    {
      "inputs": [
        {
          "internalType": "uint256",
          "name": "_paymentAmount",
          "type": "uint256"
        },
        {
          "internalType": "uint256",
          "name": "_stakePercent",
          "type": "uint256"
        },
        {
          "internalType": "uint256",
          "name": "_startDate",
          "type": "uint256"
        },
        {
          "internalType": "uint256",
          "name": "_endDate",
          "type": "uint256"
        }
      ],
      "stateMutability": "nonpayable",
      "type": "constructor"
    },
    {
      "anonymous": false,
      "inputs": [
        {
          "indexed": false,
          "internalType": "uint256",
          "name": "",
          "type": "uint256"
        },
        {
          "indexed": false,
          "internalType": "uint256",
          "name": "",
          "type": "uint256"
        },
        {
          "indexed": false,
          "internalType": "string",
          "name": "",
          "type": "string"
        }
      ],
      "name": "ModifyMismatch",
      "type": "event"
    },
    {
      "anonymous": false,
      "inputs": [
        {
          "indexed": false,
          "internalType": "address",
          "name": "",
          "type": "address"
        },
        {
          "indexed": false,
          "internalType": "uint256",
          "name": "",
          "type": "uint256"
        }
      ],
      "name": "Received",
      "type": "event"
    },
    {
      "inputs": [
        {
          "internalType": "address",
          "name": "",
          "type": "address"
        }
      ],
      "name": "particpants",
      "outputs": [
        {
          "internalType": "string",
          "name": "particpantType",
          "type": "string"
        },
        {
          "internalType": "bool",
          "name": "hasStake",
          "type": "bool"
        },
        {
          "internalType": "address",
          "name": "particpantAddr",
          "type": "address"
        },
        {
          "internalType": "bool",
          "name": "isEmployer",
          "type": "bool"
        },
        {
          "internalType": "uint256",
          "name": "stakeAmount",
          "type": "uint256"
        },
        {
          "internalType": "uint256",
          "name": "totalAmount",
          "type": "uint256"
        }
      ],
      "stateMutability": "view",
      "type": "function",
      "constant": true
    },
    {
      "inputs": [],
      "name": "setEmployee",
      "outputs": [],
      "stateMutability": "nonpayable",
      "type": "function"
    },
    {
      "inputs": [],
      "name": "setParticpantFunds",
      "outputs": [],
      "stateMutability": "payable",
      "type": "function",
      "payable": true
    },
    {
      "inputs": [
        {
          "internalType": "uint256",
          "name": "_start",
          "type": "uint256"
        },
        {
          "internalType": "uint256",
          "name": "_end",
          "type": "uint256"
        }
      ],
      "name": "modifyDates",
      "outputs": [],
      "stateMutability": "nonpayable",
      "type": "function"
    },
    {
      "inputs": [],
      "name": "withdraw",
      "outputs": [],
      "stateMutability": "payable",
      "type": "function",
      "payable": true
    },
    {
      "inputs": [],
      "name": "terminate",
      "outputs": [],
      "stateMutability": "payable",
      "type": "function",
      "payable": true
    },
    {
      "inputs": [],
      "name": "getPaymentAmount",
      "outputs": [
        {
          "internalType": "uint256",
          "name": "",
          "type": "uint256"
        }
      ],
      "stateMutability": "view",
      "type": "function",
      "constant": true
    },
    {
      "inputs": [],
      "name": "getStakeAmount",
      "outputs": [
        {
          "internalType": "uint256",
          "name": "",
          "type": "uint256"
        }
      ],
      "stateMutability": "view",
      "type": "function",
      "constant": true
    },
    {
      "inputs": [],
      "name": "getEmployer",
      "outputs": [
        {
          "internalType": "address",
          "name": "",
          "type": "address"
        }
      ],
      "stateMutability": "view",
      "type": "function",
      "constant": true
    },
    {
      "inputs": [],
      "name": "getEmployee",
      "outputs": [
        {
          "internalType": "address",
          "name": "",
          "type": "address"
        }
      ],
      "stateMutability": "view",
      "type": "function",
      "constant": true
    },
    {
      "inputs": [],
      "name": "getStartDate",
      "outputs": [
        {
          "internalType": "uint256",
          "name": "",
          "type": "uint256"
        }
      ],
      "stateMutability": "view",
      "type": "function",
      "constant": true
    },
    {
      "inputs": [],
      "name": "getEndDate",
      "outputs": [
        {
          "internalType": "uint256",
          "name": "",
          "type": "uint256"
        }
      ],
      "stateMutability": "view",
      "type": "function",
      "constant": true
    }
  ],
  "bytecode": "0x608060405260006002556000600355600060045560006005556000600660006101000a81548160ff021916908315150217905550600060075560006008553480156200004a57600080fd5b50604051620026d9380380620026d9833981810160405281019062000070919062000283565b80821080156200007f57504282115b6200008957600080fd5b336000806101000a81548173ffffffffffffffffffffffffffffffffffffffff021916908373ffffffffffffffffffffffffffffffffffffffff16021790555083600581905550600554606484620000e2919062000353565b620000ee91906200038b565b60078190555081600281905550806003819055506000600a60003373ffffffffffffffffffffffffffffffffffffffff1673ffffffffffffffffffffffffffffffffffffffff16815260200190815260200160002060010160006101000a81548160ff02191690831515021790555033600a60003373ffffffffffffffffffffffffffffffffffffffff1673ffffffffffffffffffffffffffffffffffffffff16815260200190815260200160002060010160016101000a81548173ffffffffffffffffffffffffffffffffffffffff021916908373ffffffffffffffffffffffffffffffffffffffff1602179055506001600a60003373ffffffffffffffffffffffffffffffffffffffff1673ffffffffffffffffffffffffffffffffffffffff16815260200190815260200160002060010160156101000a81548160ff02191690831515021790555050505050620003ec565b600080fd5b6000819050919050565b6200025d8162000248565b81146200026957600080fd5b50565b6000815190506200027d8162000252565b92915050565b60008060008060808587031215620002a0576200029f62000243565b5b6000620002b0878288016200026c565b9450506020620002c3878288016200026c565b9350506040620002d6878288016200026c565b9250506060620002e9878288016200026c565b91505092959194509250565b7f4e487b7100000000000000000000000000000000000000000000000000000000600052601260045260246000fd5b7f4e487b7100000000000000000000000000000000000000000000000000000000600052601160045260246000fd5b6000620003608262000248565b91506200036d8362000248565b92508262000380576200037f620002f5565b5b828204905092915050565b6000620003988262000248565b9150620003a58362000248565b9250817fffffffffffffffffffffffffffffffffffffffffffffffffffffffffffffffff0483118215151615620003e157620003e062000324565b5b828202905092915050565b6122dd80620003fc6000396000f3fe6080604052600436106100a75760003560e01c806378f305c61161006457806378f305c61461016a57806387aa18eb14610195578063a2b299c1146101d7578063b135648814610202578063bc814c4a1461022d578063cb2c545214610244576100a7565b80630c08bf88146100ac5780633ccfd60b146100b65780633e8817aa146100c05780634132db8f146100eb57806368b46b2914610116578063722580b61461013f575b600080fd5b6100b461024e565b005b6100be610570565b005b3480156100cc57600080fd5b506100d5610850565b6040516100e29190611adc565b60405180910390f35b3480156100f757600080fd5b5061010061085a565b60405161010d9190611b38565b60405180910390f35b34801561012257600080fd5b5061013d60048036038101906101389190611b84565b610884565b005b34801561014b57600080fd5b50610154610b08565b6040516101619190611adc565b60405180910390f35b34801561017657600080fd5b5061017f610b12565b60405161018c9190611adc565b60405180910390f35b3480156101a157600080fd5b506101bc60048036038101906101b79190611bf0565b610b1c565b6040516101ce96959493929190611cd1565b60405180910390f35b3480156101e357600080fd5b506101ec610c1a565b6040516101f99190611b38565b60405180910390f35b34801561020e57600080fd5b50610217610c43565b6040516102249190611adc565b60405180910390f35b34801561023957600080fd5b50610242610c4d565b005b61024c610e72565b005b600160009054906101000a900473ffffffffffffffffffffffffffffffffffffffff1673ffffffffffffffffffffffffffffffffffffffff163373ffffffffffffffffffffffffffffffffffffffff1614806102f5575060008054906101000a900473ffffffffffffffffffffffffffffffffffffffff1673ffffffffffffffffffffffffffffffffffffffff163373ffffffffffffffffffffffffffffffffffffffff16145b6102fe57600080fd5b42600254101561040a5760005b6009805490508110156103fe5760006009828154811061032e5761032d611d39565b5b9060005260206000200160009054906101000a900473ffffffffffffffffffffffffffffffffffffffff1690506000600a60003373ffffffffffffffffffffffffffffffffffffffff1673ffffffffffffffffffffffffffffffffffffffff1681526020019081526020016000206003015490508173ffffffffffffffffffffffffffffffffffffffff166108fc829081150290604051600060405180830381858888f193505050501580156103e8573d6000803e3d6000fd5b50505080806103f690611d97565b91505061030b565b5061040960016114b1565b5b600a60003373ffffffffffffffffffffffffffffffffffffffff1673ffffffffffffffffffffffffffffffffffffffff16815260200190815260200160002060010160009054906101000a900460ff168015610467575042600254115b1561056e576000610476611925565b9050600a60008273ffffffffffffffffffffffffffffffffffffffff1673ffffffffffffffffffffffffffffffffffffffff16815260200190815260200160002060010160009054906101000a900460ff166105625760003390506000600a60003373ffffffffffffffffffffffffffffffffffffffff1673ffffffffffffffffffffffffffffffffffffffff1681526020019081526020016000206003015490508173ffffffffffffffffffffffffffffffffffffffff166108fc829081150290604051600060405180830381858888f1935050505015801561055e573d6000803e3d6000fd5b5050505b61056c60016114b1565b505b565b600160009054906101000a900473ffffffffffffffffffffffffffffffffffffffff1673ffffffffffffffffffffffffffffffffffffffff163373ffffffffffffffffffffffffffffffffffffffff161480610617575060008054906101000a900473ffffffffffffffffffffffffffffffffffffffff1673ffffffffffffffffffffffffffffffffffffffff163373ffffffffffffffffffffffffffffffffffffffff16145b61062057600080fd5b60006003541415801561063557506003544210155b8015610654575060001515600660009054906101000a900460ff161515145b61065d57600080fd5b60008054906101000a900473ffffffffffffffffffffffffffffffffffffffff1673ffffffffffffffffffffffffffffffffffffffff163373ffffffffffffffffffffffffffffffffffffffff16141561074b576000600a60003373ffffffffffffffffffffffffffffffffffffffff1673ffffffffffffffffffffffffffffffffffffffff1681526020019081526020016000206002015490503373ffffffffffffffffffffffffffffffffffffffff166108fc829081150290604051600060405180830381858888f1935050505015801561073e573d6000803e3d6000fd5b5061074960006114b1565b505b600160009054906101000a900473ffffffffffffffffffffffffffffffffffffffff1673ffffffffffffffffffffffffffffffffffffffff163373ffffffffffffffffffffffffffffffffffffffff16141561084e5760003390506000600a60003373ffffffffffffffffffffffffffffffffffffffff1673ffffffffffffffffffffffffffffffffffffffff1681526020019081526020016000206002015490508173ffffffffffffffffffffffffffffffffffffffff166108fc600554836108159190611de0565b9081150290604051600060405180830381858888f19350505050158015610840573d6000803e3d6000fd5b5061084b60006114b1565b50505b565b6000600554905090565b6000600160009054906101000a900473ffffffffffffffffffffffffffffffffffffffff16905090565b600160009054906101000a900473ffffffffffffffffffffffffffffffffffffffff1673ffffffffffffffffffffffffffffffffffffffff163373ffffffffffffffffffffffffffffffffffffffff16148061092b575060008054906101000a900473ffffffffffffffffffffffffffffffffffffffff1673ffffffffffffffffffffffffffffffffffffffff163373ffffffffffffffffffffffffffffffffffffffff16145b61093457600080fd5b4260025411801561094457504282115b801561094f57508082105b61095857600080fd5b6000604051806040016040528084815260200183815250905060006040518060400160405280600160009054906101000a900473ffffffffffffffffffffffffffffffffffffffff1673ffffffffffffffffffffffffffffffffffffffff1673ffffffffffffffffffffffffffffffffffffffff16815260200160008054906101000a900473ffffffffffffffffffffffffffffffffffffffff1673ffffffffffffffffffffffffffffffffffffffff1673ffffffffffffffffffffffffffffffffffffffff16815250905060008073ffffffffffffffffffffffffffffffffffffffff1663f3e24fcd84846040518363ffffffff1660e01b8152600401610a61929190611f8c565b602060405180830381600087803b158015610a7b57600080fd5b505af1158015610a8f573d6000803e3d6000fd5b505050506040513d601f19601f82011682018060405250810190610ab39190611fe1565b15610ac757610ac28585611a0a565b610b01565b7ff70a74d34220dada24140536c5f730b9a28c3bc04231c2234b328dfeec9b8caa8585604051610af8929190612080565b60405180910390a15b5050505050565b6000600754905090565b6000600254905090565b600a602052806000526040600020600091509050806000018054610b3f906120eb565b80601f0160208091040260200160405190810160405280929190818152602001828054610b6b906120eb565b8015610bb85780601f10610b8d57610100808354040283529160200191610bb8565b820191906000526020600020905b815481529060010190602001808311610b9b57829003601f168201915b5050505050908060010160009054906101000a900460ff16908060010160019054906101000a900473ffffffffffffffffffffffffffffffffffffffff16908060010160159054906101000a900460ff16908060020154908060030154905086565b60008060009054906101000a900473ffffffffffffffffffffffffffffffffffffffff16905090565b6000600354905090565b60008054906101000a900473ffffffffffffffffffffffffffffffffffffffff1673ffffffffffffffffffffffffffffffffffffffff163373ffffffffffffffffffffffffffffffffffffffff161415610cdc576040517f08c379a0000000000000000000000000000000000000000000000000000000008152600401610cd39061218f565b60405180910390fd5b6002544210610cea57600080fd5b600060045414610cf957600080fd5b3373ffffffffffffffffffffffffffffffffffffffff16600160009054906101000a90505050600160046000828254610d329190611de0565b925050819055506000600a60003373ffffffffffffffffffffffffffffffffffffffff1673ffffffffffffffffffffffffffffffffffffffff16815260200190815260200160002060010160006101000a81548160ff02191690831515021790555033600a60003373ffffffffffffffffffffffffffffffffffffffff1673ffffffffffffffffffffffffffffffffffffffff16815260200190815260200160002060010160016101000a81548173ffffffffffffffffffffffffffffffffffffffff021916908373ffffffffffffffffffffffffffffffffffffffff1602179055506000600a60003373ffffffffffffffffffffffffffffffffffffffff1673ffffffffffffffffffffffffffffffffffffffff16815260200190815260200160002060010160156101000a81548160ff021916908315150217905550565b600160009054906101000a900473ffffffffffffffffffffffffffffffffffffffff1673ffffffffffffffffffffffffffffffffffffffff163373ffffffffffffffffffffffffffffffffffffffff161480610f19575060008054906101000a900473ffffffffffffffffffffffffffffffffffffffff1673ffffffffffffffffffffffffffffffffffffffff163373ffffffffffffffffffffffffffffffffffffffff16145b610f2257600080fd5b60008054906101000a900473ffffffffffffffffffffffffffffffffffffffff1673ffffffffffffffffffffffffffffffffffffffff163373ffffffffffffffffffffffffffffffffffffffff16141561117e576002544210610f8457600080fd5b600554600754610f949190611de0565b3414610fd5576040517f08c379a0000000000000000000000000000000000000000000000000000000008152600401610fcc906121fb565b60405180910390fd5b7f88a5966d370b9919b20f3e2c13ff65706f196a4e32cc2c12bf57088f88525874333460405161100692919061221b565b60405180910390a16001600a60003373ffffffffffffffffffffffffffffffffffffffff1673ffffffffffffffffffffffffffffffffffffffff16815260200190815260200160002060010160006101000a81548160ff021916908315150217905550600554346110779190612244565b600a60003373ffffffffffffffffffffffffffffffffffffffff1673ffffffffffffffffffffffffffffffffffffffff1681526020019081526020016000206002018190555034600a60003373ffffffffffffffffffffffffffffffffffffffff1673ffffffffffffffffffffffffffffffffffffffff168152602001908152602001600020600301819055503360096008548154811061111b5761111a611d39565b5b9060005260206000200160006101000a81548173ffffffffffffffffffffffffffffffffffffffff021916908373ffffffffffffffffffffffffffffffffffffffff1602179055506001600860008282546111769190611de0565b925050819055505b600160009054906101000a900473ffffffffffffffffffffffffffffffffffffffff1673ffffffffffffffffffffffffffffffffffffffff163373ffffffffffffffffffffffffffffffffffffffff1614156114af5760025442106111e257600080fd5b6001600454106111f157600080fd5b6007543411611235576040517f08c379a000000000000000000000000000000000000000000000000000000000815260040161122c906121fb565b60405180910390fd5b7f88a5966d370b9919b20f3e2c13ff65706f196a4e32cc2c12bf57088f88525874333460405161126692919061221b565b60405180910390a16001600a60003373ffffffffffffffffffffffffffffffffffffffff1673ffffffffffffffffffffffffffffffffffffffff16815260200190815260200160002060010160006101000a81548160ff02191690831515021790555033600a60003373ffffffffffffffffffffffffffffffffffffffff1673ffffffffffffffffffffffffffffffffffffffff16815260200190815260200160002060010160016101000a81548173ffffffffffffffffffffffffffffffffffffffff021916908373ffffffffffffffffffffffffffffffffffffffff1602179055506000600a60003373ffffffffffffffffffffffffffffffffffffffff1673ffffffffffffffffffffffffffffffffffffffff16815260200190815260200160002060010160156101000a81548160ff021916908315150217905550600754600a60003373ffffffffffffffffffffffffffffffffffffffff1673ffffffffffffffffffffffffffffffffffffffff1681526020019081526020016000206002018190555034600a60003373ffffffffffffffffffffffffffffffffffffffff1673ffffffffffffffffffffffffffffffffffffffff168152602001908152602001600020600301819055503360096008548154811061144c5761144b611d39565b5b9060005260206000200160006101000a81548173ffffffffffffffffffffffffffffffffffffffff021916908373ffffffffffffffffffffffffffffffffffffffff1602179055506001600860008282546114a79190611de0565b925050819055505b565b80156116e55760005b60098054905081101561167f576000600a6000600984815481106114e1576114e0611d39565b5b9060005260206000200160009054906101000a900473ffffffffffffffffffffffffffffffffffffffff1673ffffffffffffffffffffffffffffffffffffffff1673ffffffffffffffffffffffffffffffffffffffff168152602001908152602001600020600201819055506000600a60006009848154811061156757611566611d39565b5b9060005260206000200160009054906101000a900473ffffffffffffffffffffffffffffffffffffffff1673ffffffffffffffffffffffffffffffffffffffff1673ffffffffffffffffffffffffffffffffffffffff168152602001908152602001600020600301819055506000600a6000600984815481106115ed576115ec611d39565b5b9060005260206000200160009054906101000a900473ffffffffffffffffffffffffffffffffffffffff1673ffffffffffffffffffffffffffffffffffffffff1673ffffffffffffffffffffffffffffffffffffffff16815260200190815260200160002060010160006101000a81548160ff021916908315150217905550808061167790611d97565b9150506114ba565b50600067ffffffffffffffff81111561169b5761169a612278565b5b6040519080825280602002602001820160405280156116c95781602001602082028036833780820191505090505b50600990805190602001906116df929190611a1c565b50611922565b60005b600980549050811015611920573373ffffffffffffffffffffffffffffffffffffffff16600982815481106117205761171f611d39565b5b9060005260206000200160009054906101000a900473ffffffffffffffffffffffffffffffffffffffff1673ffffffffffffffffffffffffffffffffffffffff16141561190d576000600a60006009848154811061178157611780611d39565b5b9060005260206000200160009054906101000a900473ffffffffffffffffffffffffffffffffffffffff1673ffffffffffffffffffffffffffffffffffffffff1673ffffffffffffffffffffffffffffffffffffffff168152602001908152602001600020600201819055506000600a60006009848154811061180757611806611d39565b5b9060005260206000200160009054906101000a900473ffffffffffffffffffffffffffffffffffffffff1673ffffffffffffffffffffffffffffffffffffffff1673ffffffffffffffffffffffffffffffffffffffff168152602001908152602001600020600301819055506000600a60006009848154811061188d5761188c611d39565b5b9060005260206000200160009054906101000a900473ffffffffffffffffffffffffffffffffffffffff1673ffffffffffffffffffffffffffffffffffffffff1673ffffffffffffffffffffffffffffffffffffffff16815260200190815260200160002060010160006101000a81548160ff0219169083151502179055505b808061191890611d97565b9150506116e8565b505b50565b600080600090505b600980549050811015611a05573373ffffffffffffffffffffffffffffffffffffffff166009828154811061196557611964611d39565b5b9060005260206000200160009054906101000a900473ffffffffffffffffffffffffffffffffffffffff1673ffffffffffffffffffffffffffffffffffffffff16146119f257600981815481106119bf576119be611d39565b5b9060005260206000200160009054906101000a900473ffffffffffffffffffffffffffffffffffffffff16915050611a07565b80806119fd90611d97565b91505061192d565b505b90565b81600281905550806003819055505050565b828054828255906000526020600020908101928215611a95579160200282015b82811115611a945782518260006101000a81548173ffffffffffffffffffffffffffffffffffffffff021916908373ffffffffffffffffffffffffffffffffffffffff16021790555091602001919060010190611a3c565b5b509050611aa29190611aa6565b5090565b5b80821115611abf576000816000905550600101611aa7565b5090565b6000819050919050565b611ad681611ac3565b82525050565b6000602082019050611af16000830184611acd565b92915050565b600073ffffffffffffffffffffffffffffffffffffffff82169050919050565b6000611b2282611af7565b9050919050565b611b3281611b17565b82525050565b6000602082019050611b4d6000830184611b29565b92915050565b600080fd5b611b6181611ac3565b8114611b6c57600080fd5b50565b600081359050611b7e81611b58565b92915050565b60008060408385031215611b9b57611b9a611b53565b5b6000611ba985828601611b6f565b9250506020611bba85828601611b6f565b9150509250929050565b611bcd81611b17565b8114611bd857600080fd5b50565b600081359050611bea81611bc4565b92915050565b600060208284031215611c0657611c05611b53565b5b6000611c1484828501611bdb565b91505092915050565b600081519050919050565b600082825260208201905092915050565b60005b83811015611c57578082015181840152602081019050611c3c565b83811115611c66576000848401525b50505050565b6000601f19601f8301169050919050565b6000611c8882611c1d565b611c928185611c28565b9350611ca2818560208601611c39565b611cab81611c6c565b840191505092915050565b60008115159050919050565b611ccb81611cb6565b82525050565b600060c0820190508181036000830152611ceb8189611c7d565b9050611cfa6020830188611cc2565b611d076040830187611b29565b611d146060830186611cc2565b611d216080830185611acd565b611d2e60a0830184611acd565b979650505050505050565b7f4e487b7100000000000000000000000000000000000000000000000000000000600052603260045260246000fd5b7f4e487b7100000000000000000000000000000000000000000000000000000000600052601160045260246000fd5b6000611da282611ac3565b91507fffffffffffffffffffffffffffffffffffffffffffffffffffffffffffffffff821415611dd557611dd4611d68565b5b600182019050919050565b6000611deb82611ac3565b9150611df683611ac3565b9250827fffffffffffffffffffffffffffffffffffffffffffffffffffffffffffffffff03821115611e2b57611e2a611d68565b5b828201905092915050565b600060029050919050565b600081905092915050565b6000819050919050565b611e5f81611ac3565b82525050565b6000611e718383611e56565b60208301905092915050565b6000602082019050919050565b611e9381611e36565b611e9d8184611e41565b9250611ea882611e4c565b8060005b83811015611ed9578151611ec08782611e65565b9650611ecb83611e7d565b925050600181019050611eac565b505050505050565b600060029050919050565b600081905092915050565b6000819050919050565b611f0a81611b17565b82525050565b6000611f1c8383611f01565b60208301905092915050565b6000602082019050919050565b611f3e81611ee1565b611f488184611eec565b9250611f5382611ef7565b8060005b83811015611f84578151611f6b8782611f10565b9650611f7683611f28565b925050600181019050611f57565b505050505050565b6000608082019050611fa16000830185611e8a565b611fae6040830184611f35565b9392505050565b611fbe81611cb6565b8114611fc957600080fd5b50565b600081519050611fdb81611fb5565b92915050565b600060208284031215611ff757611ff6611b53565b5b600061200584828501611fcc565b91505092915050565b7f446174657320646f206e6f74206d617463682c207369676e617475726573207260008201527f6571756972656420616761696e00000000000000000000000000000000000000602082015250565b600061206a602d83611c28565b91506120758261200e565b604082019050919050565b60006060820190506120956000830185611acd565b6120a26020830184611acd565b81810360408301526120b38161205d565b90509392505050565b7f4e487b7100000000000000000000000000000000000000000000000000000000600052602260045260246000fd5b6000600282049050600182168061210357607f821691505b60208210811415612117576121166120bc565b5b50919050565b7f456d706c6f796572206e6f7420616c6c6f77656420746f2063616c6c2074686960008201527f732066756e6374696f6e00000000000000000000000000000000000000000000602082015250565b6000612179602a83611c28565b91506121848261211d565b604082019050919050565b600060208201905081810360008301526121a88161216c565b9050919050565b7f496e737566666963656e7420616d6f756e740000000000000000000000000000600082015250565b60006121e5601283611c28565b91506121f0826121af565b602082019050919050565b60006020820190508181036000830152612214816121d8565b9050919050565b60006040820190506122306000830185611b29565b61223d6020830184611acd565b9392505050565b600061224f82611ac3565b915061225a83611ac3565b92508282101561226d5761226c611d68565b5b828203905092915050565b7f4e487b7100000000000000000000000000000000000000000000000000000000600052604160045260246000fdfea2646970667358221220a57902ca42b7099e8b3fcae17d5b05f13ad13c6450e5242fbdb7fa086105eea864736f6c63430008090033",
  "immutableReferences": {},
  "source": "// SPDX-License-Identifier: MIT\r\npragma solidity >=0.4.21 <8.10.0;\r\n\r\nimport \"./ModifyDate.sol\";\r\nimport \"./SimpleContractAgreementInterface.sol\";\r\n\r\ncontract SimpleContractAgreement is SimpleContractAgreementInterface {\r\n    address employer;\r\n    address employee;\r\n    uint256 startDate = 0;\r\n    uint256 endDate = 0;\r\n    uint256 employeeCounter = 0;\r\n    uint256 paymentAmount = 0;\r\n    bool particpantDispute = false;\r\n    uint256 stakeAmount = 0;\r\n    uint256 particpantID = 0;\r\n    event Received(address, uint256);\r\n    event ModifyMismatch(uint256, uint256, string);\r\n\r\n    constructor(\r\n        uint256 _paymentAmount,\r\n        uint256 _stakePercent,\r\n        uint256 _startDate,\r\n        uint256 _endDate\r\n    ) {\r\n        require(_startDate < _endDate && _startDate > block.timestamp);\r\n        employer = payable(msg.sender);\r\n        paymentAmount = _paymentAmount;\r\n        stakeAmount = (_stakePercent / 100) * paymentAmount;\r\n        startDate = _startDate;\r\n        endDate = _endDate;\r\n        particpants[msg.sender].hasStake = false;\r\n        particpants[msg.sender].particpantAddr = msg.sender;\r\n        particpants[msg.sender].isEmployer = true;\r\n    }\r\n\r\n    struct particpant {\r\n        string particpantType;\r\n        bool hasStake;\r\n        address particpantAddr;\r\n        bool isEmployer;\r\n        uint256 stakeAmount;\r\n        uint256 totalAmount;\r\n    }\r\n\r\n    address payable[] addresses;\r\n\r\n    mapping(address => particpant) public particpants;\r\n\r\n    function setEmployee() public notEmployer {\r\n        require(block.timestamp < startDate);\r\n        require(employeeCounter == 0);\r\n        employee == msg.sender;\r\n        employeeCounter += 1;\r\n        particpants[msg.sender].hasStake = false;\r\n        particpants[msg.sender].particpantAddr = msg.sender;\r\n        particpants[msg.sender].isEmployer = false;\r\n    }\r\n\r\n    /*Condition: set the employer or employee and commit the stake amount to the contract. the employer also c\r\ncommits the payment amount to the contract.\r\nYou can only set particpant if the contract hasnt started yet\r\n*/\r\n    function setParticpantFunds() public payable particpantsOnly {\r\n        if (msg.sender == employer) {\r\n            require(block.timestamp < startDate);\r\n            require(\r\n                msg.value == (stakeAmount + paymentAmount),\r\n                \"Insufficent amount\"\r\n            );\r\n            emit Received(msg.sender, msg.value);\r\n            particpants[msg.sender].hasStake = true;\r\n            particpants[msg.sender].stakeAmount = msg.value - paymentAmount;\r\n            particpants[msg.sender].totalAmount = msg.value;\r\n            addresses[particpantID] = payable(msg.sender);\r\n            particpantID += 1;\r\n        }\r\n        if (msg.sender == employee) {\r\n            require(block.timestamp < startDate);\r\n            require(employeeCounter < 1);\r\n            require(msg.value > stakeAmount, \"Insufficent amount\");\r\n            emit Received(msg.sender, msg.value);\r\n            particpants[msg.sender].hasStake = true;\r\n            particpants[msg.sender].particpantAddr = msg.sender;\r\n            particpants[msg.sender].isEmployer = false;\r\n            particpants[msg.sender].stakeAmount = stakeAmount;\r\n            particpants[msg.sender].totalAmount = msg.value;\r\n            addresses[particpantID] = payable(msg.sender);\r\n            particpantID += 1;\r\n        }\r\n    }\r\n\r\n    /* Input: proposed start and end dates that they want to change to\r\nConditions:Give the option to the employer or employee to modify start and end date for the contract\r\nrequires signature of both parties\r\ncan only modify date if start date is in the future, start date is less than end date\r\nand the initial start hasnt elapsed already\r\n*/\r\n    function modifyDates(uint256 _start, uint256 _end) public particpantsOnly {\r\n        require(\r\n            startDate > block.timestamp &&\r\n                _start > block.timestamp &&\r\n                _start < _end\r\n        );\r\n        uint256[2] memory _tempData = [_start, _end];\r\n        address[2] memory _signatures = [employee, employer];\r\n        ModifyDate date;\r\n        if (date.modifyDates(_tempData, _signatures)) {\r\n            updateDates(_start, _end);\r\n        } else {\r\n            emit ModifyMismatch(\r\n                _start,\r\n                _end,\r\n                \"Dates do not match, signatures required again\"\r\n            );\r\n        }\r\n    }\r\n\r\n    function updateDates(uint256 _start, uint256 _end) private {\r\n        startDate = _start;\r\n        endDate = _end;\r\n    }\r\n\r\n    /* Condition: Sends money to both sender if the contract end date has passed and there isnt a dispute\r\nwithdraw function allows particpants to withdraw payment and stake for Employees\r\nand stake for employers\r\n */\r\n\r\n    function withdraw() public payable particpantsOnly {\r\n        require(\r\n            endDate != 0 &&\r\n                block.timestamp >= endDate &&\r\n                particpantDispute == false\r\n        );\r\n        if (msg.sender == employer) {\r\n            uint256 stake = particpants[msg.sender].stakeAmount;\r\n            payable(msg.sender).transfer(stake);\r\n            resetParticpants(false);\r\n        }\r\n        if (msg.sender == employee) {\r\n            address payable receiver = payable(msg.sender);\r\n            uint256 stake = particpants[msg.sender].stakeAmount;\r\n            receiver.transfer(stake + paymentAmount);\r\n            resetParticpants(false);\r\n        }\r\n    }\r\n\r\n    // if the contract hasnt started yet, send both back their stake\r\n    // if the contract start date has passed but only one participant\r\n    // if the contract has started but one participant needs to withdraw from obligations\r\n    function terminate() public payable particpantsOnly {\r\n        if (startDate < block.timestamp) {\r\n            for (uint256 index = 0; index < addresses.length; index++) {\r\n                address payable _receiver = addresses[index];\r\n                uint256 _amount = particpants[msg.sender].totalAmount;\r\n                _receiver.transfer(_amount);\r\n            }\r\n            resetParticpants(true);\r\n        }\r\n        if (\r\n            (particpants[msg.sender].hasStake) && (startDate > block.timestamp)\r\n        ) {\r\n            address otherParticpant = getOtherParticpant();\r\n            if (!particpants[otherParticpant].hasStake) {\r\n                address payable _receiver = payable(msg.sender);\r\n                uint256 _amount = particpants[msg.sender].totalAmount;\r\n                _receiver.transfer(_amount);\r\n            }\r\n            resetParticpants(true);\r\n        }\r\n    }\r\n\r\n    function getOtherParticpant() private view returns (address addr) {\r\n        for (uint256 index = 0; index < addresses.length; index++) {\r\n            if (addresses[index] != msg.sender) {\r\n                return addresses[index];\r\n            }\r\n        }\r\n    }\r\n\r\n    function resetParticpants(bool _all) private {\r\n        if (_all) {\r\n            for (uint256 index = 0; index < addresses.length; index++) {\r\n                particpants[addresses[index]].stakeAmount = 0;\r\n                particpants[addresses[index]].totalAmount = 0;\r\n                particpants[addresses[index]].hasStake = false;\r\n            }\r\n            addresses = new address payable[](0);\r\n        } else {\r\n            for (uint256 index = 0; index < addresses.length; index++) {\r\n                if (addresses[index] == msg.sender) {\r\n                    particpants[addresses[index]].stakeAmount = 0;\r\n                    particpants[addresses[index]].totalAmount = 0;\r\n                    particpants[addresses[index]].hasStake = false;\r\n                }\r\n            }\r\n        }\r\n    }\r\n\r\n    function getPaymentAmount() public view returns (uint256) {\r\n        return paymentAmount;\r\n    }\r\n\r\n    function getStakeAmount() public view returns (uint256) {\r\n        return stakeAmount;\r\n    }\r\n\r\n    function getEmployer() public view returns (address) {\r\n        return employer;\r\n    }\r\n\r\n    function getEmployee() public view returns (address) {\r\n        return employee;\r\n    }\r\n\r\n    function getStartDate() public view returns (uint256) {\r\n        return startDate;\r\n    }\r\n\r\n    function getEndDate() public view returns (uint256) {\r\n        return endDate;\r\n    }\r\n\r\n    modifier onlyEmployer() {\r\n        require(\r\n            msg.sender == employer,\r\n            \"Only Employer allowed to call this function\"\r\n        );\r\n        _;\r\n    }\r\n\r\n    modifier particpantsOnly() {\r\n        require(msg.sender == employee || msg.sender == employer);\r\n        _;\r\n    }\r\n\r\n    modifier onlyEmployee() {\r\n        require(\r\n            msg.sender == employee,\r\n            \"Only Employee allowed to call this function\"\r\n        );\r\n        _;\r\n    }\r\n\r\n    modifier notEmployer() {\r\n        require(\r\n            msg.sender != employer,\r\n            \"Employer not allowed to call this function\"\r\n        );\r\n        _;\r\n    }\r\n\r\n    modifier notEmployee() {\r\n        require(\r\n            msg.sender != employee,\r\n            \"Employee not allowed to call this function\"\r\n        );\r\n        _;\r\n    }\r\n}\r\n",
  "sourcePath": "C:/Users/richi/Solidity/ProjectDAO/contracts/SimpleContractAgreement.sol",
  "compiler": {
    "name": "solc",
    "version": "0.8.9+commit.e5eed63a.Emscripten.clang"
  },
  "schemaVersion": "3.3.1",
  "updatedAt": "2022-05-19T12:08:06.501Z",
  "networkType": "ethereum",
  "devdoc": {
    "kind": "dev",
    "methods": {},
    "version": 1
  },
  "userdoc": {
    "kind": "user",
    "methods": {},
    "version": 1
  }
}