{
  "contractName": "SinglePaymentAgreementFactory",
  "abi": [
    {
      "inputs": [
        {
          "internalType": "address",
          "name": "_masterContract",
          "type": "address"
        }
      ],
      "stateMutability": "nonpayable",
      "type": "constructor"
    },
    {
      "inputs": [
        {
          "internalType": "uint256",
          "name": "",
          "type": "uint256"
        }
      ],
      "name": "children",
      "outputs": [
        {
          "internalType": "contract SinglePaymentAgreement",
          "name": "",
          "type": "address"
        }
      ],
      "stateMutability": "view",
      "type": "function"
    },
    {
      "inputs": [
        {
          "internalType": "uint256",
          "name": "_paymentAmount",
          "type": "uint256"
        },
        {
          "internalType": "uint256",
          "name": "_stakeAmount",
          "type": "uint256"
        },
        {
          "internalType": "uint256",
          "name": "_startDate",
          "type": "uint256"
        },
        {
          "internalType": "uint256",
          "name": "_endDate",
          "type": "uint256"
        }
      ],
      "name": "createChild",
      "outputs": [],
      "stateMutability": "nonpayable",
      "type": "function"
    },
    {
      "inputs": [],
      "name": "getChildren",
      "outputs": [
        {
          "internalType": "contract SinglePaymentAgreement[]",
          "name": "",
          "type": "address[]"
        }
      ],
      "stateMutability": "view",
      "type": "function"
    }
  ],
  "bytecode": "0x608060405234801561001057600080fd5b506040516106dc3803806106dc833981810160405281019061003291906100dc565b80600160006101000a81548173ffffffffffffffffffffffffffffffffffffffff021916908373ffffffffffffffffffffffffffffffffffffffff16021790555050610109565b600080fd5b600073ffffffffffffffffffffffffffffffffffffffff82169050919050565b60006100a98261007e565b9050919050565b6100b98161009e565b81146100c457600080fd5b50565b6000815190506100d6816100b0565b92915050565b6000602082840312156100f2576100f1610079565b5b6000610100848285016100c7565b91505092915050565b6105c4806101186000396000f3fe608060405234801561001057600080fd5b50600436106100415760003560e01c80634892e8e81461004657806366765f8d146100645780637002ce4214610080575b600080fd5b61004e6100b0565b60405161005b919061041f565b60405180910390f35b61007e6004803603810190610079919061047c565b61013e565b005b61009a600480360381019061009591906104e3565b610248565b6040516100a7919061051f565b60405180910390f35b6060600080548060200260200160405190810160405280929190818152602001828054801561013457602002820191906000526020600020905b8160009054906101000a900473ffffffffffffffffffffffffffffffffffffffff1673ffffffffffffffffffffffffffffffffffffffff16815260200190600101908083116100ea575b5050505050905090565b600061016b600160009054906101000a900473ffffffffffffffffffffffffffffffffffffffff16610287565b90508073ffffffffffffffffffffffffffffffffffffffff16637662850d868686866040518563ffffffff1660e01b81526004016101ac9493929190610549565b600060405180830381600087803b1580156101c657600080fd5b505af11580156101da573d6000803e3d6000fd5b505050506000819080600181540180825580915050600190039060005260206000200160009091909190916101000a81548173ffffffffffffffffffffffffffffffffffffffff021916908373ffffffffffffffffffffffffffffffffffffffff1602179055505050505050565b6000818154811061025857600080fd5b906000526020600020016000915054906101000a900473ffffffffffffffffffffffffffffffffffffffff1681565b6000808260601b90506040517f3d602d80600a3d3981f3363d3d373d3d3d363d7300000000000000000000000081528160148201527f5af43d82803e903d91602b57fd5bf3000000000000000000000000000000000060288201526037816000f092505050919050565b600081519050919050565b600082825260208201905092915050565b6000819050602082019050919050565b600073ffffffffffffffffffffffffffffffffffffffff82169050919050565b6000819050919050565b600061036261035d6103588461031d565b61033d565b61031d565b9050919050565b600061037482610347565b9050919050565b600061038682610369565b9050919050565b6103968161037b565b82525050565b60006103a8838361038d565b60208301905092915050565b6000602082019050919050565b60006103cc826102f1565b6103d681856102fc565b93506103e18361030d565b8060005b838110156104125781516103f9888261039c565b9750610404836103b4565b9250506001810190506103e5565b5085935050505092915050565b6000602082019050818103600083015261043981846103c1565b905092915050565b600080fd5b6000819050919050565b61045981610446565b811461046457600080fd5b50565b60008135905061047681610450565b92915050565b6000806000806080858703121561049657610495610441565b5b60006104a487828801610467565b94505060206104b587828801610467565b93505060406104c687828801610467565b92505060606104d787828801610467565b91505092959194509250565b6000602082840312156104f9576104f8610441565b5b600061050784828501610467565b91505092915050565b6105198161037b565b82525050565b60006020820190506105346000830184610510565b92915050565b61054381610446565b82525050565b600060808201905061055e600083018761053a565b61056b602083018661053a565b610578604083018561053a565b610585606083018461053a565b9594505050505056fea2646970667358221220f227f4b90ec2da1e3e5d19bef2ac892755d823eb88d55ded6dcff21053a7d22164736f6c63430008090033",
  "immutableReferences": {},
  "source": "//SPDX-License-Identifier: MIT\r\npragma solidity >=0.4.21 <8.10.0;\r\n\r\nimport \"./CloneFactory.sol\";\r\nimport \"./SinglePaymentAgreement.sol\";\r\n\r\ncontract SinglePaymentAgreementFactory is CloneFactory {\r\n    SinglePaymentAgreement[] public children;\r\n    address masterContract;\r\n\r\n    constructor(address _masterContract) {\r\n        masterContract = _masterContract;\r\n    }\r\n\r\n    function createChild(\r\n        uint256 _paymentAmount,\r\n        uint256 _stakeAmount,\r\n        uint256 _startDate,\r\n        uint256 _endDate\r\n    ) external {\r\n        SinglePaymentAgreement child = SinglePaymentAgreement(\r\n            createClone(masterContract)\r\n        );\r\n        child.init(_paymentAmount, _stakeAmount, _startDate, _endDate);\r\n        children.push(child);\r\n    }\r\n\r\n    function getChildren()\r\n        external\r\n        view\r\n        returns (SinglePaymentAgreement[] memory)\r\n    {\r\n        return children;\r\n    }\r\n}\r\n",
  "sourcePath": "C:/Users/richi/Solidity/ProjectDAO/contracts/SinglePaymentAgreementFactory.sol",
  "compiler": {
    "name": "solc",
    "version": "0.8.9+commit.e5eed63a.Emscripten.clang"
  },
  "schemaVersion": "3.3.1",
  "updatedAt": "2022-06-14T21:56:19.065Z",
  "devdoc": {
    "kind": "dev",
    "methods": {},
    "version": 1
  },
  "userdoc": {
    "kind": "user",
    "methods": {},
    "version": 1
  }
}